{
  "contractName": "Medipedia",
  "abi": [
    {
      "constant": true,
      "inputs": [],
      "name": "owner",
      "outputs": [
        {
          "name": "",
          "type": "address"
        }
      ],
      "payable": false,
      "stateMutability": "view",
      "type": "function"
    },
    {
      "inputs": [],
      "payable": false,
      "stateMutability": "nonpayable",
      "type": "constructor"
    },
    {
      "anonymous": false,
      "inputs": [
        {
          "indexed": false,
          "name": "userAddress",
          "type": "address"
        },
        {
          "indexed": false,
          "name": "msgReqst",
          "type": "string"
        }
      ],
      "name": "addMessageRequestEvent",
      "type": "event"
    },
    {
      "anonymous": false,
      "inputs": [
        {
          "indexed": false,
          "name": "userAddress",
          "type": "address"
        },
        {
          "indexed": false,
          "name": "reply",
          "type": "string"
        }
      ],
      "name": "addMessageReplyEvent",
      "type": "event"
    },
    {
      "anonymous": false,
      "inputs": [
        {
          "indexed": false,
          "name": "userAddress",
          "type": "address"
        },
        {
          "indexed": false,
          "name": "eventMsg",
          "type": "string"
        }
      ],
      "name": "userStatusUpdated",
      "type": "event"
    },
    {
      "constant": false,
      "inputs": [
        {
          "name": "_consumerAddress",
          "type": "address"
        },
        {
          "name": "_providerAddresses",
          "type": "address[]"
        },
        {
          "name": "_msgRequestHash",
          "type": "string"
        }
      ],
      "name": "addMessageRequest",
      "outputs": [],
      "payable": false,
      "stateMutability": "nonpayable",
      "type": "function"
    },
    {
      "constant": false,
      "inputs": [
        {
          "name": "_consumerAddress",
          "type": "address"
        },
        {
          "name": "_providerAddresses",
          "type": "address[]"
        },
        {
          "name": "_msgRequestHash",
          "type": "string"
        },
        {
          "name": "_repHash",
          "type": "string"
        }
      ],
      "name": "addReplies",
      "outputs": [],
      "payable": false,
      "stateMutability": "nonpayable",
      "type": "function"
    },
    {
      "constant": true,
      "inputs": [
        {
          "name": "userAddress",
          "type": "address"
        }
      ],
      "name": "getNoOfMsgs",
      "outputs": [
        {
          "name": "",
          "type": "uint256"
        }
      ],
      "payable": false,
      "stateMutability": "view",
      "type": "function"
    },
    {
      "constant": true,
      "inputs": [
        {
          "name": "userAddress",
          "type": "address"
        },
        {
          "name": "id",
          "type": "uint256"
        }
      ],
      "name": "getMessageCommunicationHash",
      "outputs": [
        {
          "name": "",
          "type": "string"
        }
      ],
      "payable": false,
      "stateMutability": "view",
      "type": "function"
    },
    {
      "constant": true,
      "inputs": [
        {
          "name": "userAddress",
          "type": "address"
        },
        {
          "name": "id",
          "type": "uint256"
        }
      ],
      "name": "getMessageRequestHash",
      "outputs": [
        {
          "name": "",
          "type": "string"
        }
      ],
      "payable": false,
      "stateMutability": "view",
      "type": "function"
    },
    {
      "constant": true,
      "inputs": [
        {
          "name": "userAddress",
          "type": "address"
        },
        {
          "name": "id",
          "type": "uint256"
        },
        {
          "name": "_medproviderAddress",
          "type": "address"
        }
      ],
      "name": "getMessageRequestHashUsingProviderAddress",
      "outputs": [
        {
          "name": "",
          "type": "string"
        }
      ],
      "payable": false,
      "stateMutability": "view",
      "type": "function"
    },
    {
      "constant": false,
      "inputs": [
        {
          "name": "userAddress",
          "type": "address"
        },
        {
          "name": "status",
          "type": "uint256"
        }
      ],
      "name": "setUserStatus",
      "outputs": [],
      "payable": false,
      "stateMutability": "nonpayable",
      "type": "function"
    },
    {
      "constant": true,
      "inputs": [
        {
          "name": "userAddress",
          "type": "address"
        }
      ],
      "name": "getUserStatus",
      "outputs": [
        {
          "name": "",
          "type": "uint256"
        }
      ],
      "payable": false,
      "stateMutability": "view",
      "type": "function"
    },
    {
      "constant": false,
      "inputs": [
        {
          "name": "userAddress",
          "type": "address"
        }
      ],
      "name": "deleteAllMessages",
      "outputs": [],
      "payable": false,
      "stateMutability": "nonpayable",
      "type": "function"
    },
    {
      "constant": false,
      "inputs": [],
      "name": "kill",
      "outputs": [],
      "payable": false,
      "stateMutability": "nonpayable",
      "type": "function"
    }
  ],
  "bytecode": "0x608060405234801561001057600080fd5b50336000806101000a81548173ffffffffffffffffffffffffffffffffffffffff021916908373ffffffffffffffffffffffffffffffffffffffff160217905550611bb3806100606000396000f3006080604052600436106100ae576000357c0100000000000000000000000000000000000000000000000000000000900463ffffffff1680628c3215146100b3578063303bef74146101c55780633d3bc43e1461020857806341c0e1b5146102ee5780638da5cb5b146103055780638e86d0301461035c578063b0f1123414610422578063c7ed1e86146104e8578063daded88e1461053f578063ea0d5dcd1461060b578063f71cc3a514610662575b600080fd5b3480156100bf57600080fd5b506101c3600480360381019080803573ffffffffffffffffffffffffffffffffffffffff16906020019092919080359060200190820180359060200190808060200260200160405190810160405280939291908181526020018383602002808284378201915050505050509192919290803590602001908201803590602001908080601f0160208091040260200160405190810160405280939291908181526020018383808284378201915050505050509192919290803590602001908201803590602001908080601f01602080910402602001604051908101604052809392919081815260200183838082843782019150505050505091929192905050506106af565b005b3480156101d157600080fd5b50610206600480360381019080803573ffffffffffffffffffffffffffffffffffffffff1690602001909291905050506107c7565b005b34801561021457600080fd5b50610273600480360381019080803573ffffffffffffffffffffffffffffffffffffffff16906020019092919080359060200190929190803573ffffffffffffffffffffffffffffffffffffffff169060200190929190505050610815565b6040518080602001828103825283818151815260200191508051906020019080838360005b838110156102b3578082015181840152602081019050610298565b50505050905090810190601f1680156102e05780820380516001836020036101000a031916815260200191505b509250505060405180910390f35b3480156102fa57600080fd5b506103036109d6565b005b34801561031157600080fd5b5061031a610ac2565b604051808273ffffffffffffffffffffffffffffffffffffffff1673ffffffffffffffffffffffffffffffffffffffff16815260200191505060405180910390f35b34801561036857600080fd5b506103a7600480360381019080803573ffffffffffffffffffffffffffffffffffffffff16906020019092919080359060200190929190505050610ae7565b6040518080602001828103825283818151815260200191508051906020019080838360005b838110156103e75780820151818401526020810190506103cc565b50505050905090810190601f1680156104145780820380516001836020036101000a031916815260200191505b509250505060405180910390f35b34801561042e57600080fd5b5061046d600480360381019080803573ffffffffffffffffffffffffffffffffffffffff16906020019092919080359060200190929190505050610bf0565b6040518080602001828103825283818151815260200191508051906020019080838360005b838110156104ad578082015181840152602081019050610492565b50505050905090810190601f1680156104da5780820380516001836020036101000a031916815260200191505b509250505060405180910390f35b3480156104f457600080fd5b50610529600480360381019080803573ffffffffffffffffffffffffffffffffffffffff169060200190929190505050610d35565b6040518082815260200191505060405180910390f35b34801561054b57600080fd5b50610609600480360381019080803573ffffffffffffffffffffffffffffffffffffffff16906020019092919080359060200190820180359060200190808060200260200160405190810160405280939291908181526020018383602002808284378201915050505050509192919290803590602001908201803590602001908080601f0160208091040260200160405190810160405280939291908181526020018383808284378201915050505050509192919290505050610d81565b005b34801561061757600080fd5b5061064c600480360381019080803573ffffffffffffffffffffffffffffffffffffffff169060200190929190505050610eb9565b6040518082815260200191505060405180910390f35b34801561066e57600080fd5b506106ad600480360381019080803573ffffffffffffffffffffffffffffffffffffffff16906020019092919080359060200190929190505050610f5d565b005b6000806001600260008873ffffffffffffffffffffffffffffffffffffffff1673ffffffffffffffffffffffffffffffffffffffff1681526020019081526020016000205414156107bf5761071e86858588600081518110151561070f57fe5b9060200190602002015161109c565b84519150600090505b818110156107be57600160026000878481518110151561074357fe5b9060200190602002015173ffffffffffffffffffffffffffffffffffffffff1673ffffffffffffffffffffffffffffffffffffffff1681526020019081526020016000205414156107b1576107b0858281518110151561079f57fe5b906020019060200201518585611432565b5b8080600101915050610727565b5b505050505050565b600160008273ffffffffffffffffffffffffffffffffffffffff1673ffffffffffffffffffffffffffffffffffffffff16815260200190815260200160002060006108129190611949565b50565b6060600080600080600160008973ffffffffffffffffffffffffffffffffffffffff1673ffffffffffffffffffffffffffffffffffffffff168152602001908152602001600020935083805490509250600091505b828210156109b757838281548110151561088057fe5b906000526020600020906004020160030160009054906101000a900473ffffffffffffffffffffffffffffffffffffffff1673ffffffffffffffffffffffffffffffffffffffff168673ffffffffffffffffffffffffffffffffffffffff1614156109aa5783600188038154811015156108f657fe5b90600052602060002090600402016001019050808054600181600116156101000203166002900480601f01602080910402602001604051908101604052809291908181526020018280546001816001161561010002031660029004801561099e5780601f106109735761010080835404028352916020019161099e565b820191906000526020600020905b81548152906001019060200180831161098157829003601f168201915b505050505094506109cb565b818060010192505061086a565b602060405190810160405280600081525094505b505050509392505050565b6000809054906101000a900473ffffffffffffffffffffffffffffffffffffffff1673ffffffffffffffffffffffffffffffffffffffff163373ffffffffffffffffffffffffffffffffffffffff16141515610a3157600080fd5b6000809054906101000a900473ffffffffffffffffffffffffffffffffffffffff1673ffffffffffffffffffffffffffffffffffffffff163373ffffffffffffffffffffffffffffffffffffffff161415610ac0576000809054906101000a900473ffffffffffffffffffffffffffffffffffffffff1673ffffffffffffffffffffffffffffffffffffffff16ff5b565b6000809054906101000a900473ffffffffffffffffffffffffffffffffffffffff1681565b60606000600160008573ffffffffffffffffffffffffffffffffffffffff1673ffffffffffffffffffffffffffffffffffffffff16815260200190815260200160002090508060018403815481101515610b3d57fe5b90600052602060002090600402016001018054600181600116156101000203166002900480601f016020809104026020016040519081016040528092919081815260200182805460018160011615610100020316600290048015610be25780601f10610bb757610100808354040283529160200191610be2565b820191906000526020600020905b815481529060010190602001808311610bc557829003601f168201915b505050505091505092915050565b6060600080600160008673ffffffffffffffffffffffffffffffffffffffff1673ffffffffffffffffffffffffffffffffffffffff16815260200190815260200160002091508160018503815481101515610c4757fe5b906000526020600020906004020160020190506000818054600181600116156101000203166002900490501415610c905760206040519081016040528060008152509250610d2d565b808054600181600116156101000203166002900480601f016020809104026020016040519081016040528092919081815260200182805460018160011615610100020316600290048015610d255780601f10610cfa57610100808354040283529160200191610d25565b820191906000526020600020905b815481529060010190602001808311610d0857829003601f168201915b505050505092505b505092915050565b6000600160008373ffffffffffffffffffffffffffffffffffffffff1673ffffffffffffffffffffffffffffffffffffffff168152602001908152602001600020805490509050919050565b6000806001600260008773ffffffffffffffffffffffffffffffffffffffff1673ffffffffffffffffffffffffffffffffffffffff168152602001908152602001600020541415610eb25783519150600090505b81811015610eb1576001600260008684815181101515610df157fe5b9060200190602002015173ffffffffffffffffffffffffffffffffffffffff1673ffffffffffffffffffffffffffffffffffffffff168152602001908152602001600020541415610ea457610e6f858460206040519081016040528060008152508785815181101515610e6057fe5b90602001906020020151611753565b610ea38482815181101515610e8057fe5b906020019060200201518460206040519081016040528060008152506000611753565b5b8080600101915050610dd5565b5b5050505050565b60008060009054906101000a900473ffffffffffffffffffffffffffffffffffffffff1673ffffffffffffffffffffffffffffffffffffffff163373ffffffffffffffffffffffffffffffffffffffff16141515610f1657600080fd5b600260008373ffffffffffffffffffffffffffffffffffffffff1673ffffffffffffffffffffffffffffffffffffffff168152602001908152602001600020549050919050565b6000809054906101000a900473ffffffffffffffffffffffffffffffffffffffff1673ffffffffffffffffffffffffffffffffffffffff163373ffffffffffffffffffffffffffffffffffffffff16141515610fb857600080fd5b80600260008473ffffffffffffffffffffffffffffffffffffffff1673ffffffffffffffffffffffffffffffffffffffff168152602001908152602001600020819055507f877f155c8a1c228bbe0bf3a8eea17603a9e04100d36886567dfd50629f22cc8b82604051808273ffffffffffffffffffffffffffffffffffffffff1673ffffffffffffffffffffffffffffffffffffffff16815260200180602001828103825260148152602001807f557365722073746174757320757064617465642e0000000000000000000000008152506020019250505060405180910390a15050565b6000806000600160008873ffffffffffffffffffffffffffffffffffffffff1673ffffffffffffffffffffffffffffffffffffffff168152602001908152602001600020925082805490509150600090505b8181101561142957828181548110151561110457fe5b906000526020600020906004020160030160009054906101000a900473ffffffffffffffffffffffffffffffffffffffff1673ffffffffffffffffffffffffffffffffffffffff168473ffffffffffffffffffffffffffffffffffffffff16141561141c57600085511180156113415750856040516020018082805190602001908083835b6020831015156111ae5780518252602082019150602081019050602083039250611189565b6001836020036101000a0380198251168184511680821785525050505050509050019150506040516020818303038152906040526040518082805190602001908083835b60208310151561121757805182526020820191506020810190506020830392506111f2565b6001836020036101000a038019825116818451168082178552505050505050905001915050604051809103902060001916838281548110151561125657fe5b906000526020600020906004020160010160405160200180828054600181600116156101000203166002900480156112c55780601f106112a35761010080835404028352918201916112c5565b820191906000526020600020905b8154815290600101906020018083116112b1575b50509150506040516020818303038152906040526040518082805190602001908083835b60208310151561130e57805182526020820191506020810190506020830392506112e9565b6001836020036101000a038019825116818451168082178552505050505050905001915050604051809103902060001916145b1561141b5784838281548110151561135557fe5b9060005260206000209060040201600201908051906020019061137992919061196d565b507f3d7a2575d2a8467ed0f2607e3259175522a764a8aa9e83b0410aec1cf696780287604051808273ffffffffffffffffffffffffffffffffffffffff1673ffffffffffffffffffffffffffffffffffffffff16815260200180602001828103825260118152602001807f41206e6577207265706c792061646465640000000000000000000000000000008152506020019250505060405180910390a1611429565b5b80806001019150506110ee565b50505050505050565b6000806000600160008773ffffffffffffffffffffffffffffffffffffffff1673ffffffffffffffffffffffffffffffffffffffff168152602001908152602001600020925082805490509150600090505b8181101561174b57600084511180156116645750846040516020018082805190602001908083835b6020831015156114d157805182526020820191506020810190506020830392506114ac565b6001836020036101000a0380198251168184511680821785525050505050509050019150506040516020818303038152906040526040518082805190602001908083835b60208310151561153a5780518252602082019150602081019050602083039250611515565b6001836020036101000a038019825116818451168082178552505050505050905001915050604051809103902060001916838281548110151561157957fe5b906000526020600020906004020160010160405160200180828054600181600116156101000203166002900480156115e85780601f106115c65761010080835404028352918201916115e8565b820191906000526020600020905b8154815290600101906020018083116115d4575b50509150506040516020818303038152906040526040518082805190602001908083835b602083101515611631578051825260208201915060208101905060208303925061160c565b6001836020036101000a038019825116818451168082178552505050505050905001915050604051809103902060001916145b1561173e5783838281548110151561167857fe5b9060005260206000209060040201600201908051906020019061169c92919061196d565b507f3d7a2575d2a8467ed0f2607e3259175522a764a8aa9e83b0410aec1cf696780286604051808273ffffffffffffffffffffffffffffffffffffffff1673ffffffffffffffffffffffffffffffffffffffff16815260200180602001828103825260118152602001807f41206e6577207265706c792061646465640000000000000000000000000000008152506020019250505060405180910390a161174b565b8080600101915050611484565b505050505050565b60008061175e6119ed565b6000600160008973ffffffffffffffffffffffffffffffffffffffff1673ffffffffffffffffffffffffffffffffffffffff1681526020019081526020016000209350838054905092506001830190506080604051908101604052808281526020018881526020018781526020018673ffffffffffffffffffffffffffffffffffffffff16815250915083829080600181540180825580915050906001820390600052602060002090600402016000909192909190915060008201518160000155602082015181600101908051906020019061183b929190611a2c565b506040820151816002019080519060200190611858929190611a2c565b5060608201518160030160006101000a81548173ffffffffffffffffffffffffffffffffffffffff021916908373ffffffffffffffffffffffffffffffffffffffff1602179055505050507f88a47eb83c6edf2a419647673286d3a4ac79b7db8f6d7be32d164cf24956e1ba88604051808273ffffffffffffffffffffffffffffffffffffffff1673ffffffffffffffffffffffffffffffffffffffff168152602001806020018281038252601a8152602001807f4e6577204d65737361676520726571756573742061646465642e0000000000008152506020019250505060405180910390a15050505050505050565b508054600082556004029060005260206000209081019061196a9190611aac565b50565b828054600181600116156101000203166002900490600052602060002090601f016020900481019282601f106119ae57805160ff19168380011785556119dc565b828001600101855582156119dc579182015b828111156119db5782518255916020019190600101906119c0565b5b5090506119e99190611b1a565b5090565b608060405190810160405280600081526020016060815260200160608152602001600073ffffffffffffffffffffffffffffffffffffffff1681525090565b828054600181600116156101000203166002900490600052602060002090601f016020900481019282601f10611a6d57805160ff1916838001178555611a9b565b82800160010185558215611a9b579182015b82811115611a9a578251825591602001919060010190611a7f565b5b509050611aa89190611b1a565b5090565b611b1791905b80821115611b1357600080820160009055600182016000611ad39190611b3f565b600282016000611ae39190611b3f565b6003820160006101000a81549073ffffffffffffffffffffffffffffffffffffffff021916905550600401611ab2565b5090565b90565b611b3c91905b80821115611b38576000816000905550600101611b20565b5090565b90565b50805460018160011615610100020316600290046000825580601f10611b655750611b84565b601f016020900490600052602060002090810190611b839190611b1a565b5b505600a165627a7a72305820ddcecf076fb525d838deae3c6b364dc9e0ed448c7820ca295ae6ddf88041cb510029",
  "source": "pragma solidity ^0.4.24;\n\n/**\n    This smart contract represents the POC of Medipedia platform that deals with finding the\n    matching doctors and sending the medical requests to all the matched doctors or clinics.\n*/\n\ncontract Medipedia {\n    address public owner;\n    \n    constructor() public{\n        owner = msg.sender;\n    }\n    \n    modifier restricted() {\n        require(msg.sender == owner);\n        _;\n    }\n    \n    event addMessageRequestEvent(address userAddress, string msgReqst);\n    event addMessageReplyEvent(address userAddress, string reply);\n    event userStatusUpdated(address userAddress, string eventMsg);\n    /**\n        Message holds the encrypted hash of Medical Request\n        raised by patients and encrypted hash of replies \n        from matching Medical Service Providers.\n     */\n    struct Message{\n        uint id;\n        string messageRequestHash;\n        string replyHash;\n        address medproviderAddress;\n    }\n\n    /**\n        Each message communication will be held by an user.\n        An user is medical servicer provider or patient.\n     */\n    mapping (address => Message[]) messages;\n    \n    /**\n     * userStatus makes sure that information will be updated \n     * only authorized Consumers and Medical Providers.\n     * userStatus is active if it is 1 other 0 as deactivated account.\n    */\n    \n    mapping (address => uint) userStatus;\n     \n    function addMessageRequest(address _consumerAddress, address[] _providerAddresses, string _msgRequestHash) public{\n        if(userStatus[_consumerAddress] == 1){\n            uint _noOfProviders = _providerAddresses.length;\n            for (uint i = 0; i<_noOfProviders; i++) {\n                if(userStatus[_providerAddresses[i]] == 1){\n                    addRequest(_consumerAddress,  _msgRequestHash,  \"\", _providerAddresses[i]);\n                    addRequest(_providerAddresses[i],  _msgRequestHash,  \"\", address(0));\n                }\n            }\n        }\n    }\n    \n    /**\n        addRequest adds medical request and replies to Struct\n        data structure. It is only accessible to authorized users.\n     */\n    function addRequest(address userAddress, string msgRequestHash, string repHash, address _medproviderAddress) private {\n        \n        Message[] storage msgs = messages[userAddress];\n        uint arrayLength = msgs.length;\n        Message memory message;\n        uint id = arrayLength + 1;\n        message = Message(id, msgRequestHash, repHash, _medproviderAddress);\n        msgs.push(message);\n        emit addMessageRequestEvent(userAddress, \"New Message request added.\");\n    }\n\n    function addReplies(address _consumerAddress, address[] _providerAddresses, string _msgRequestHash, string _repHash) public{\n        if(userStatus[_consumerAddress] == 1){\n            addPatientReply(_consumerAddress,  _msgRequestHash,  _repHash, _providerAddresses[0]);\n            uint _noOfProviders = _providerAddresses.length;\n            for (uint i = 0; i<_noOfProviders; i++) {\n                if(userStatus[_providerAddresses[i]] == 1){\n                    addMedicalProviderReply(_providerAddresses[i],  _msgRequestHash,  _repHash);\n                }\n            }\n        }\n    }\n\n    function addPatientReply(address userAddress, string msgRequestHash, string repHash, address _medproviderAddress) private {\n        \n        Message[] storage msgs = messages[userAddress];\n\n        uint arrayLength = msgs.length;\n        \n        for (uint i = 0; i<arrayLength; i++) {\n            if(_medproviderAddress == msgs[i].medproviderAddress){\n                if(bytes(repHash).length > 0 && \n                    keccak256(abi.encodePacked(msgs[i].messageRequestHash)) == keccak256(abi.encodePacked(msgRequestHash))){\n                    msgs[i].replyHash = repHash;\n                    emit addMessageReplyEvent(userAddress, \"A new reply added\");\n                    break;\n                }\n            }\n            \n        }\n    }\n\n    /**\n        addReply adds medical request and replies to Struct\n        data structure. It is only accessible to authorized users.\n     */\n    function addMedicalProviderReply(address userAddress, string msgRequestHash, string repHash) private {\n        \n        Message[] storage msgs = messages[userAddress];\n\n        uint arrayLength = msgs.length;\n        \n        for (uint i = 0; i<arrayLength; i++) {\n\n            if(bytes(repHash).length > 0 && \n                keccak256(abi.encodePacked(msgs[i].messageRequestHash)) == keccak256(abi.encodePacked(msgRequestHash))){\n                msgs[i].replyHash = repHash;\n                emit addMessageReplyEvent(userAddress, \"A new reply added\");\n                break;\n            }\n        }\n\n    }\n\n    /**\n        getNoOfMsgs returns number of message communications.\n     */\n    function getNoOfMsgs(address userAddress) public view returns(uint){\n        return messages[userAddress].length;\n    }\n\n    /**\n        getMessageCommunicationHash returns all communications between an user\n        and a provider.\n     */\n    function getMessageCommunicationHash(address userAddress, uint id) public view returns(string){\n        Message[] storage msgs = messages[userAddress];\n        string storage msgHash = msgs[id-1].replyHash;\n\n        if(bytes(msgHash).length == 0){\n            return \"\";\n        }\n\n        return msgHash;\n    }\n    /**\n        getMessageRequestHash returns a medical request\n     */\n    function getMessageRequestHash(address userAddress, uint id) public view returns(string){\n        Message[] storage msgs = messages[userAddress];\n        return msgs[id-1].messageRequestHash;\n    }\n\n    /**\n        getMessageRequestHashUsingProviderAddress returns a medical request\n     */\n    function getMessageRequestHashUsingProviderAddress(address userAddress, uint id, address _medproviderAddress) public view returns(string){\n        Message[] storage msgs = messages[userAddress];\n\n        uint arrayLength = msgs.length;\n        for (uint i = 0; i<arrayLength; i++) {\n            if(_medproviderAddress == msgs[i].medproviderAddress){\n                string storage reqHash = msgs[id-1].messageRequestHash;\n                return reqHash;\n            }\n        }\n\n        return \"\";\n    }\n    \n    function setUserStatus(address userAddress, uint status) public restricted{\n        userStatus[userAddress] = status;\n        emit userStatusUpdated(userAddress, \"User status updated.\");\n    }\n\n    function getUserStatus(address userAddress) public restricted view returns(uint){\n        return userStatus[userAddress];\n    }\n\n    function deleteAllMessages(address userAddress) public{\n        delete messages[userAddress];\n    }\n    \n    function kill() public restricted{\n        if (msg.sender == owner) selfdestruct(owner);\n    }\n\n}",
  "sourcePath": "/Users/lingrajmahanand/medipedia/dev-01/medi-react/contracts/Medipedia.sol",
  "compiler": {
    "name": "solc",
    "version": "0.4.24+commit.e67f0147.Emscripten.clang"
  },
  "schemaVersion": "2.0.0",
  "updatedAt": "2018-07-25T08:21:47.716Z"
}